:02000000AB282B
:10000600710DF80DF90D7408F8027508031C750FCB
:10001600F902F00DF10D0F30FC00710DF80DF90D20
:100026007408701C1C28F8027508031C750FF90269
:100036002128F80775080318750FF907F00DF10D5B
:10004600FC0B102870182D287408F807750803187B
:08005600750FF9070000080016
:0E005E00831203132F088A002E088200080068
:10006C002F208A110A128000840AAE0A0319AF0AE3
:08007C00F003031D3628080003
:10008400831203137408003A031D51287508003ABB
:10009400031D5128FF30F0007F30F100AA2883129D
:1000A4000313FD01F901F801710870040319003408
:1000B40071087506FA00FA1BFD09FB01F51F672894
:1000C400F409F509F40A0319F50AF11F6E28F00979
:1000D400F109F00A0319F10A71087504FA00FA1B10
:1000E400832803207B189628FD1F0034F009F109AA
:1000F400F00A0319F10AF809F909F80A0319F90AC7
:100104000034F51F9228F11B8E287108F90070083D
:10011400F800F101F0017628F101F001F00A003451
:10012400F109F009FB0A7328F80A0319F90A74089B
:100134007802031D762875087902031D7628F901D3
:10014400F801F00A0319F10AF11F76280000FF34C0
:020154000800A1
:1001560083120313A001A101A201A301A401A50119
:10016600A601A701A801A901AA01AB01AC01AD0135
:10017600063083169F00FF308500860187018801BF
:100186008312860187018801051C3A2B061086100A
:1001960006158615061286120C30A6000030A7003A
:1001A6000F30A4000030A50080302506F000803016
:1001B6007002031DE02803302402031C652905187C
:1001C600E52865290A30F4000030F5002608F0001D
:1001D6002708F10042207008A2007108A3000A3027
:1001E600F4000030F5002608F0002708F100422050
:1001F6007808F0007908F1007008AC007108AD00CD
:100206000A30F4000030F5002408F0002508F1005B
:1002160042207008AA007108AB000A30F4000030D2
:10022600F5002408F0002508F10042207808F000C7
:100236007908F1007008A8007108A900A001A101C1
:1002460080302106F00080307002031D2C29193001
:10025600200203185C290F302205F00020307004BC
:1002660088000F302A05F0002030700487001A300D
:10027600FC00F830FD00FD0B3E29FC0B3E2900007A
:100286000F302C05F0001030700488000F30280560
:10029600F0001030700487001A30FC00F830FD00C2
:1002A600FD0B5329FC0B53290000A00A0319A10AD0
:1002B60023290130A602031CA7030130A402031C54
:1002C600A503D7280610861406118615061286126F
:1002D6000330A6000030A7000330A4000030A500BC
:1002E60080302506F00080307002031D7C29013025
:1002F6002402031C012A05188129012A0A30F40068
:100306000030F5002608F0002708F10042207008AA
:10031600A2007108A3000A30F4000030F500260898
:10032600F0002708F10042207808F0007908F10073
:100336007008AC007108AD000A30F4000030F5001A
:100346002408F0002508F10042207008AA00710870
:10035600AB000A30F4000030F5002408F000250850
:10036600F10042207808F0007908F1007008A80032
:100376007108A900A001A10180302106F00080309B
:100386007002031DC829193020020318F8290F30FE
:100396002205F0002030700488000F302A05F00096
:1003A6002030700487001A30FC00F830FD00FD0B89
:1003B600DA29FC0BDA2900000F302C05F00010308A
:1003C600700488000F302805F00010307004870094
:1003D6001A30FC00F830FD00FD0BEF29FC0BEF296D
:1003E6000000A00A0319A10ABF290130A602031CB6
:1003F600A7030130A402031CA50373290614861063
:1004060006118611061286161730A6000030A700C0
:100416001430A4000030A50080302706F00080309C
:100426007002031D182A03302602031C9D2A051894
:100436001D2A9D2A0A30F4000030F5002608F00037
:100446002708F10042207008A2007108A3000A30B4
:10045600F4000030F5002608F0002708F1004220DD
:100466007808F0007908F1007008AC007108AD005A
:100476000A30F4000030F5002408F0002508F100E9
:1004860042207008AA007108AB000A30F400003060
:10049600F5002408F0002508F10042207808F00055
:1004A6007908F1007008A8007108A900A001A1014F
:1004B60080302106F00080307002031D642A193056
:1004C60020020318942A0F302205F0002030700411
:1004D60088000F302A05F0002030700487001A309B
:1004E600FC00F830FD00FD0B762AFC0B762A000096
:1004F6000F302C05F0001030700488000F302805EE
:10050600F0001030700487001A30FC00F830FD004F
:10051600FD0B8B2AFC0B8B2A0000A00A0319A10AEB
:100526005B2A0130A602031CA7030130A402031CA8
:10053600A5030F2A061486100611861106168612C2
:100546000330A6000030A7000330A4000030A50049
:1005560080302506F00080307002031DB42A013079
:100566002402031C392B0518B92A392B0A30F4004A
:100576000030F5002608F0002708F1004220700838
:10058600A2007108A3000A30F4000030F500260826
:10059600F0002708F10042207808F0007908F10001
:1005A6007008AC007108AD000A30F4000030F500A8
:1005B6002408F0002508F10042207008AA007108FE
:1005C600AB000A30F4000030F5002408F0002508DE
:1005D600F10042207808F0007908F1007008A800C0
:1005E6007108A900A001A10180302106F000803029
:1005F6007002031D002B193020020318302B0F3018
:100606002205F0002030700488000F302A05F00023
:100616002030700487001A30FC00F830FD00FD0B16
:10062600122BFC0B122B00000F302C05F0001030A3
:10063600700488000F302805F00010307004870021
:100646001A30FC00F830FD00FD0B272BFC0B272B86
:100656000000A00A0319A10AF72A0130A602031C0A
:10066600A7030130A402031CA503AB2A732B880140
:1006760087018518592B860186141F30FB007130BF
:10068600FC001E30FD00FD0B462BFC0B462BFB0B26
:10069600462B0000061486100611861106128616D1
:1006A6000518582B8518582B532B732B86010616C5
:1006B6001F30FB007130FC001E30FD00FD0B612B6E
:1006C600FC0B612BFB0B612B000006108610061538
:1006D6008615061286120518732B851C732B6E2B36
:0406E600C728742B82
:02400E004A2F37
:00000001FF
